{
  "address": "0xDc64a140Aa3E981100a9becA4E685f962f0cF6C9",
  "abi": [
    {
      "inputs": [
        {
          "internalType": "string",
          "name": "nftCollectionName",
          "type": "string"
        },
        {
          "internalType": "string",
          "name": "nftCollectionSymbol",
          "type": "string"
        }
      ],
      "stateMutability": "nonpayable",
      "type": "constructor"
    },
    {
      "anonymous": false,
      "inputs": [
        {
          "indexed": true,
          "internalType": "address",
          "name": "owner",
          "type": "address"
        },
        {
          "indexed": true,
          "internalType": "address",
          "name": "approved",
          "type": "address"
        },
        {
          "indexed": true,
          "internalType": "uint256",
          "name": "tokenId",
          "type": "uint256"
        }
      ],
      "name": "Approval",
      "type": "event"
    },
    {
      "anonymous": false,
      "inputs": [
        {
          "indexed": true,
          "internalType": "address",
          "name": "owner",
          "type": "address"
        },
        {
          "indexed": true,
          "internalType": "address",
          "name": "operator",
          "type": "address"
        },
        {
          "indexed": false,
          "internalType": "bool",
          "name": "approved",
          "type": "bool"
        }
      ],
      "name": "ApprovalForAll",
      "type": "event"
    },
    {
      "anonymous": false,
      "inputs": [
        {
          "indexed": true,
          "internalType": "uint256",
          "name": "tokenId",
          "type": "uint256"
        },
        {
          "indexed": true,
          "internalType": "address",
          "name": "owner",
          "type": "address"
        },
        {
          "indexed": false,
          "internalType": "uint256",
          "name": "price",
          "type": "uint256"
        }
      ],
      "name": "NftMinted",
      "type": "event"
    },
    {
      "anonymous": false,
      "inputs": [
        {
          "indexed": true,
          "internalType": "address",
          "name": "from",
          "type": "address"
        },
        {
          "indexed": true,
          "internalType": "address",
          "name": "to",
          "type": "address"
        },
        {
          "indexed": true,
          "internalType": "uint256",
          "name": "tokenId",
          "type": "uint256"
        }
      ],
      "name": "Transfer",
      "type": "event"
    },
    {
      "inputs": [
        {
          "internalType": "address",
          "name": "to",
          "type": "address"
        },
        {
          "internalType": "uint256",
          "name": "tokenId",
          "type": "uint256"
        }
      ],
      "name": "approve",
      "outputs": [],
      "stateMutability": "nonpayable",
      "type": "function"
    },
    {
      "inputs": [
        {
          "internalType": "address",
          "name": "owner",
          "type": "address"
        }
      ],
      "name": "balanceOf",
      "outputs": [
        {
          "internalType": "uint256",
          "name": "",
          "type": "uint256"
        }
      ],
      "stateMutability": "view",
      "type": "function"
    },
    {
      "inputs": [
        {
          "internalType": "uint256",
          "name": "tokenId",
          "type": "uint256"
        }
      ],
      "name": "getApproved",
      "outputs": [
        {
          "internalType": "address",
          "name": "",
          "type": "address"
        }
      ],
      "stateMutability": "view",
      "type": "function"
    },
    {
      "inputs": [
        {
          "internalType": "uint256",
          "name": "tokenId",
          "type": "uint256"
        }
      ],
      "name": "getToken",
      "outputs": [
        {
          "components": [
            {
              "internalType": "string",
              "name": "tokenUri",
              "type": "string"
            },
            {
              "internalType": "uint256",
              "name": "price",
              "type": "uint256"
            }
          ],
          "internalType": "struct NftCollection.Token",
          "name": "",
          "type": "tuple"
        }
      ],
      "stateMutability": "view",
      "type": "function"
    },
    {
      "inputs": [],
      "name": "getTokenCounter",
      "outputs": [
        {
          "internalType": "uint256",
          "name": "",
          "type": "uint256"
        }
      ],
      "stateMutability": "view",
      "type": "function"
    },
    {
      "inputs": [
        {
          "internalType": "address",
          "name": "owner",
          "type": "address"
        },
        {
          "internalType": "address",
          "name": "operator",
          "type": "address"
        }
      ],
      "name": "isApprovedForAll",
      "outputs": [
        {
          "internalType": "bool",
          "name": "",
          "type": "bool"
        }
      ],
      "stateMutability": "view",
      "type": "function"
    },
    {
      "inputs": [
        {
          "internalType": "string",
          "name": "tokenUri",
          "type": "string"
        },
        {
          "internalType": "uint256",
          "name": "price",
          "type": "uint256"
        }
      ],
      "name": "mintNft",
      "outputs": [],
      "stateMutability": "nonpayable",
      "type": "function"
    },
    {
      "inputs": [],
      "name": "name",
      "outputs": [
        {
          "internalType": "string",
          "name": "",
          "type": "string"
        }
      ],
      "stateMutability": "view",
      "type": "function"
    },
    {
      "inputs": [
        {
          "internalType": "uint256",
          "name": "tokenId",
          "type": "uint256"
        }
      ],
      "name": "ownerOf",
      "outputs": [
        {
          "internalType": "address",
          "name": "",
          "type": "address"
        }
      ],
      "stateMutability": "view",
      "type": "function"
    },
    {
      "inputs": [
        {
          "internalType": "address",
          "name": "from",
          "type": "address"
        },
        {
          "internalType": "address",
          "name": "to",
          "type": "address"
        },
        {
          "internalType": "uint256",
          "name": "tokenId",
          "type": "uint256"
        }
      ],
      "name": "safeTransferFrom",
      "outputs": [],
      "stateMutability": "nonpayable",
      "type": "function"
    },
    {
      "inputs": [
        {
          "internalType": "address",
          "name": "from",
          "type": "address"
        },
        {
          "internalType": "address",
          "name": "to",
          "type": "address"
        },
        {
          "internalType": "uint256",
          "name": "tokenId",
          "type": "uint256"
        },
        {
          "internalType": "bytes",
          "name": "data",
          "type": "bytes"
        }
      ],
      "name": "safeTransferFrom",
      "outputs": [],
      "stateMutability": "nonpayable",
      "type": "function"
    },
    {
      "inputs": [
        {
          "internalType": "address",
          "name": "operator",
          "type": "address"
        },
        {
          "internalType": "bool",
          "name": "approved",
          "type": "bool"
        }
      ],
      "name": "setApprovalForAll",
      "outputs": [],
      "stateMutability": "nonpayable",
      "type": "function"
    },
    {
      "inputs": [
        {
          "internalType": "bytes4",
          "name": "interfaceId",
          "type": "bytes4"
        }
      ],
      "name": "supportsInterface",
      "outputs": [
        {
          "internalType": "bool",
          "name": "",
          "type": "bool"
        }
      ],
      "stateMutability": "view",
      "type": "function"
    },
    {
      "inputs": [],
      "name": "symbol",
      "outputs": [
        {
          "internalType": "string",
          "name": "",
          "type": "string"
        }
      ],
      "stateMutability": "view",
      "type": "function"
    },
    {
      "inputs": [
        {
          "internalType": "uint256",
          "name": "tokenId",
          "type": "uint256"
        }
      ],
      "name": "tokenURI",
      "outputs": [
        {
          "internalType": "string",
          "name": "",
          "type": "string"
        }
      ],
      "stateMutability": "view",
      "type": "function"
    },
    {
      "inputs": [
        {
          "internalType": "address",
          "name": "from",
          "type": "address"
        },
        {
          "internalType": "address",
          "name": "to",
          "type": "address"
        },
        {
          "internalType": "uint256",
          "name": "tokenId",
          "type": "uint256"
        }
      ],
      "name": "transferFrom",
      "outputs": [],
      "stateMutability": "nonpayable",
      "type": "function"
    }
  ],
  "transactionHash": "0xbfcd384d4dd7123dc6159739ab8677d947cc29462d1d540abfa12e504ae4bbb2",
  "args": [
    "JungleBookShelf",
    "JBK"
  ],
  "numDeployments": 3,
  "solcInputHash": "d217c6cbf404e1697c769dad29b57c4b",
  "bytecode": "0x60806040523480156200001157600080fd5b5060405162002e0938038062002e098339818101604052810190620000379190620002ca565b81818160009080519060200190620000519291906200007d565b5080600190805190602001906200006a9291906200007d565b50505060006006819055505050620003b4565b8280546200008b906200037e565b90600052602060002090601f016020900481019282620000af5760008555620000fb565b82601f10620000ca57805160ff1916838001178555620000fb565b82800160010185558215620000fb579182015b82811115620000fa578251825591602001919060010190620000dd565b5b5090506200010a91906200010e565b5090565b5b80821115620001295760008160009055506001016200010f565b5090565b6000604051905090565b600080fd5b600080fd5b600080fd5b600080fd5b6000601f19601f8301169050919050565b7f4e487b7100000000000000000000000000000000000000000000000000000000600052604160045260246000fd5b62000196826200014b565b810181811067ffffffffffffffff82111715620001b857620001b76200015c565b5b80604052505050565b6000620001cd6200012d565b9050620001db82826200018b565b919050565b600067ffffffffffffffff821115620001fe57620001fd6200015c565b5b62000209826200014b565b9050602081019050919050565b60005b838110156200023657808201518184015260208101905062000219565b8381111562000246576000848401525b50505050565b6000620002636200025d84620001e0565b620001c1565b90508281526020810184848401111562000282576200028162000146565b5b6200028f84828562000216565b509392505050565b600082601f830112620002af57620002ae62000141565b5b8151620002c18482602086016200024c565b91505092915050565b60008060408385031215620002e457620002e362000137565b5b600083015167ffffffffffffffff8111156200030557620003046200013c565b5b620003138582860162000297565b925050602083015167ffffffffffffffff8111156200033757620003366200013c565b5b620003458582860162000297565b9150509250929050565b7f4e487b7100000000000000000000000000000000000000000000000000000000600052602260045260246000fd5b600060028204905060018216806200039757607f821691505b60208210811415620003ae57620003ad6200034f565b5b50919050565b612a4580620003c46000396000f3fe608060405234801561001057600080fd5b50600436106101005760003560e01c80636e02007d11610097578063b88d4fde11610066578063b88d4fde146102ab578063c87b56dd146102c7578063e4b50cb8146102f7578063e985e9c51461032757610100565b80636e02007d1461022357806370a082311461024157806395d89b4114610271578063a22cb4651461028f57610100565b806323b872dd116100d357806323b872dd1461019f5780632c7e5ec1146101bb57806342842e0e146101d75780636352211e146101f357610100565b806301ffc9a71461010557806306fdde0314610135578063081812fc14610153578063095ea7b314610183575b600080fd5b61011f600480360381019061011a919061195d565b610357565b60405161012c91906119a5565b60405180910390f35b61013d610439565b60405161014a9190611a59565b60405180910390f35b61016d60048036038101906101689190611ab1565b6104cb565b60405161017a9190611b1f565b60405180910390f35b61019d60048036038101906101989190611b66565b610511565b005b6101b960048036038101906101b49190611ba6565b610629565b005b6101d560048036038101906101d09190611d2e565b610689565b005b6101f160048036038101906101ec9190611ba6565b610753565b005b61020d60048036038101906102089190611ab1565b610773565b60405161021a9190611b1f565b60405180910390f35b61022b610825565b6040516102389190611d99565b60405180910390f35b61025b60048036038101906102569190611db4565b61082f565b6040516102689190611d99565b60405180910390f35b6102796108e7565b6040516102869190611a59565b60405180910390f35b6102a960048036038101906102a49190611e0d565b610979565b005b6102c560048036038101906102c09190611eee565b61098f565b005b6102e160048036038101906102dc9190611ab1565b6109f1565b6040516102ee9190611a59565b60405180910390f35b610311600480360381019061030c9190611ab1565b610a59565b60405161031e9190612007565b60405180910390f35b610341600480360381019061033c9190612029565b610b6a565b60405161034e91906119a5565b60405180910390f35b60007f80ac58cd000000000000000000000000000000000000000000000000000000007bffffffffffffffffffffffffffffffffffffffffffffffffffffffff1916827bffffffffffffffffffffffffffffffffffffffffffffffffffffffff1916148061042257507f5b5e139f000000000000000000000000000000000000000000000000000000007bffffffffffffffffffffffffffffffffffffffffffffffffffffffff1916827bffffffffffffffffffffffffffffffffffffffffffffffffffffffff1916145b80610432575061043182610bfe565b5b9050919050565b60606000805461044890612098565b80601f016020809104026020016040519081016040528092919081815260200182805461047490612098565b80156104c15780601f10610496576101008083540402835291602001916104c1565b820191906000526020600020905b8154815290600101906020018083116104a457829003601f168201915b5050505050905090565b60006104d682610c68565b6004600083815260200190815260200160002060009054906101000a900473ffffffffffffffffffffffffffffffffffffffff169050919050565b600061051c82610773565b90508073ffffffffffffffffffffffffffffffffffffffff168373ffffffffffffffffffffffffffffffffffffffff16141561058d576040517f08c379a00000000000000000000000000000000000000000000000000000000081526004016105849061213c565b60405180910390fd5b8073ffffffffffffffffffffffffffffffffffffffff166105ac610cb3565b73ffffffffffffffffffffffffffffffffffffffff1614806105db57506105da816105d5610cb3565b610b6a565b5b61061a576040517f08c379a0000000000000000000000000000000000000000000000000000000008152600401610611906121ce565b60405180910390fd5b6106248383610cbb565b505050565b61063a610634610cb3565b82610d74565b610679576040517f08c379a000000000000000000000000000000000000000000000000000000000815260040161067090612260565b60405180910390fd5b610684838383610e09565b505050565b61069533600654611070565b60405180604001604052808381526020018281525060076000600654815260200190815260200160002060008201518160000190805190602001906106db929190611834565b50602082015181600101559050503373ffffffffffffffffffffffffffffffffffffffff166006547f6544c14d598d074251c01174f3a1a594ceea65f5760fffdf17e4410d381a9b89836040516107329190611d99565b60405180910390a3600160065461074991906122af565b6006819055505050565b61076e8383836040518060200160405280600081525061098f565b505050565b6000806002600084815260200190815260200160002060009054906101000a900473ffffffffffffffffffffffffffffffffffffffff169050600073ffffffffffffffffffffffffffffffffffffffff168173ffffffffffffffffffffffffffffffffffffffff16141561081c576040517f08c379a000000000000000000000000000000000000000000000000000000000815260040161081390612351565b60405180910390fd5b80915050919050565b6000600654905090565b60008073ffffffffffffffffffffffffffffffffffffffff168273ffffffffffffffffffffffffffffffffffffffff1614156108a0576040517f08c379a0000000000000000000000000000000000000000000000000000000008152600401610897906123e3565b60405180910390fd5b600360008373ffffffffffffffffffffffffffffffffffffffff1673ffffffffffffffffffffffffffffffffffffffff168152602001908152602001600020549050919050565b6060600180546108f690612098565b80601f016020809104026020016040519081016040528092919081815260200182805461092290612098565b801561096f5780601f106109445761010080835404028352916020019161096f565b820191906000526020600020905b81548152906001019060200180831161095257829003601f168201915b5050505050905090565b61098b610984610cb3565b838361108e565b5050565b6109a061099a610cb3565b83610d74565b6109df576040517f08c379a00000000000000000000000000000000000000000000000000000000081526004016109d690612260565b60405180910390fd5b6109eb848484846111fb565b50505050565b60606109fc82610c68565b6000610a06611257565b90506000815111610a265760405180602001604052806000815250610a51565b80610a308461126e565b604051602001610a4192919061243f565b6040516020818303038152906040525b915050919050565b610a616118ba565b610a6a826113cf565b610aa9576040517f08c379a0000000000000000000000000000000000000000000000000000000008152600401610aa0906124d5565b60405180910390fd5b60076000838152602001908152602001600020604051806040016040529081600082018054610ad790612098565b80601f0160208091040260200160405190810160405280929190818152602001828054610b0390612098565b8015610b505780601f10610b2557610100808354040283529160200191610b50565b820191906000526020600020905b815481529060010190602001808311610b3357829003601f168201915b505050505081526020016001820154815250509050919050565b6000600560008473ffffffffffffffffffffffffffffffffffffffff1673ffffffffffffffffffffffffffffffffffffffff16815260200190815260200160002060008373ffffffffffffffffffffffffffffffffffffffff1673ffffffffffffffffffffffffffffffffffffffff16815260200190815260200160002060009054906101000a900460ff16905092915050565b60007f01ffc9a7000000000000000000000000000000000000000000000000000000007bffffffffffffffffffffffffffffffffffffffffffffffffffffffff1916827bffffffffffffffffffffffffffffffffffffffffffffffffffffffff1916149050919050565b610c71816113cf565b610cb0576040517f08c379a0000000000000000000000000000000000000000000000000000000008152600401610ca790612351565b60405180910390fd5b50565b600033905090565b816004600083815260200190815260200160002060006101000a81548173ffffffffffffffffffffffffffffffffffffffff021916908373ffffffffffffffffffffffffffffffffffffffff160217905550808273ffffffffffffffffffffffffffffffffffffffff16610d2e83610773565b73ffffffffffffffffffffffffffffffffffffffff167f8c5be1e5ebec7d5bd14f71427d1e84f3dd0314c0f7b2291e5b200ac8c7c3b92560405160405180910390a45050565b600080610d8083610773565b90508073ffffffffffffffffffffffffffffffffffffffff168473ffffffffffffffffffffffffffffffffffffffff161480610dc25750610dc18185610b6a565b5b80610e0057508373ffffffffffffffffffffffffffffffffffffffff16610de8846104cb565b73ffffffffffffffffffffffffffffffffffffffff16145b91505092915050565b8273ffffffffffffffffffffffffffffffffffffffff16610e2982610773565b73ffffffffffffffffffffffffffffffffffffffff1614610e7f576040517f08c379a0000000000000000000000000000000000000000000000000000000008152600401610e7690612567565b60405180910390fd5b600073ffffffffffffffffffffffffffffffffffffffff168273ffffffffffffffffffffffffffffffffffffffff161415610eef576040517f08c379a0000000000000000000000000000000000000000000000000000000008152600401610ee6906125f9565b60405180910390fd5b610efa83838361143b565b610f05600082610cbb565b6001600360008573ffffffffffffffffffffffffffffffffffffffff1673ffffffffffffffffffffffffffffffffffffffff1681526020019081526020016000206000828254610f559190612619565b925050819055506001600360008473ffffffffffffffffffffffffffffffffffffffff1673ffffffffffffffffffffffffffffffffffffffff1681526020019081526020016000206000828254610fac91906122af565b92505081905550816002600083815260200190815260200160002060006101000a81548173ffffffffffffffffffffffffffffffffffffffff021916908373ffffffffffffffffffffffffffffffffffffffff160217905550808273ffffffffffffffffffffffffffffffffffffffff168473ffffffffffffffffffffffffffffffffffffffff167fddf252ad1be2c89b69c2b068fc378daa952ba7f163c4a11628f55a4df523b3ef60405160405180910390a461106b838383611440565b505050565b61108a828260405180602001604052806000815250611445565b5050565b8173ffffffffffffffffffffffffffffffffffffffff168373ffffffffffffffffffffffffffffffffffffffff1614156110fd576040517f08c379a00000000000000000000000000000000000000000000000000000000081526004016110f490612699565b60405180910390fd5b80600560008573ffffffffffffffffffffffffffffffffffffffff1673ffffffffffffffffffffffffffffffffffffffff16815260200190815260200160002060008473ffffffffffffffffffffffffffffffffffffffff1673ffffffffffffffffffffffffffffffffffffffff16815260200190815260200160002060006101000a81548160ff0219169083151502179055508173ffffffffffffffffffffffffffffffffffffffff168373ffffffffffffffffffffffffffffffffffffffff167f17307eab39ab6107e8899845ad3d59bd9653f200f220920489ca2b5937696c31836040516111ee91906119a5565b60405180910390a3505050565b611206848484610e09565b611212848484846114a0565b611251576040517f08c379a00000000000000000000000000000000000000000000000000000000081526004016112489061272b565b60405180910390fd5b50505050565b606060405180602001604052806000815250905090565b606060008214156112b6576040518060400160405280600181526020017f300000000000000000000000000000000000000000000000000000000000000081525090506113ca565b600082905060005b600082146112e85780806112d19061274b565b915050600a826112e191906127c3565b91506112be565b60008167ffffffffffffffff81111561130457611303611c03565b5b6040519080825280601f01601f1916602001820160405280156113365781602001600182028036833780820191505090505b5090505b600085146113c35760018261134f9190612619565b9150600a8561135e91906127f4565b603061136a91906122af565b60f81b8183815181106113805761137f612825565b5b60200101907effffffffffffffffffffffffffffffffffffffffffffffffffffffffffffff1916908160001a905350600a856113bc91906127c3565b945061133a565b8093505050505b919050565b60008073ffffffffffffffffffffffffffffffffffffffff166002600084815260200190815260200160002060009054906101000a900473ffffffffffffffffffffffffffffffffffffffff1673ffffffffffffffffffffffffffffffffffffffff1614159050919050565b505050565b505050565b61144f8383611637565b61145c60008484846114a0565b61149b576040517f08c379a00000000000000000000000000000000000000000000000000000000081526004016114929061272b565b60405180910390fd5b505050565b60006114c18473ffffffffffffffffffffffffffffffffffffffff16611811565b1561162a578373ffffffffffffffffffffffffffffffffffffffff1663150b7a026114ea610cb3565b8786866040518563ffffffff1660e01b815260040161150c94939291906128a9565b602060405180830381600087803b15801561152657600080fd5b505af192505050801561155757506040513d601f19601f82011682018060405250810190611554919061290a565b60015b6115da573d8060008114611587576040519150601f19603f3d011682016040523d82523d6000602084013e61158c565b606091505b506000815114156115d2576040517f08c379a00000000000000000000000000000000000000000000000000000000081526004016115c99061272b565b60405180910390fd5b805181602001fd5b63150b7a0260e01b7bffffffffffffffffffffffffffffffffffffffffffffffffffffffff1916817bffffffffffffffffffffffffffffffffffffffffffffffffffffffff19161491505061162f565b600190505b949350505050565b600073ffffffffffffffffffffffffffffffffffffffff168273ffffffffffffffffffffffffffffffffffffffff1614156116a7576040517f08c379a000000000000000000000000000000000000000000000000000000000815260040161169e90612983565b60405180910390fd5b6116b0816113cf565b156116f0576040517f08c379a00000000000000000000000000000000000000000000000000000000081526004016116e7906129ef565b60405180910390fd5b6116fc6000838361143b565b6001600360008473ffffffffffffffffffffffffffffffffffffffff1673ffffffffffffffffffffffffffffffffffffffff168152602001908152602001600020600082825461174c91906122af565b92505081905550816002600083815260200190815260200160002060006101000a81548173ffffffffffffffffffffffffffffffffffffffff021916908373ffffffffffffffffffffffffffffffffffffffff160217905550808273ffffffffffffffffffffffffffffffffffffffff16600073ffffffffffffffffffffffffffffffffffffffff167fddf252ad1be2c89b69c2b068fc378daa952ba7f163c4a11628f55a4df523b3ef60405160405180910390a461180d60008383611440565b5050565b6000808273ffffffffffffffffffffffffffffffffffffffff163b119050919050565b82805461184090612098565b90600052602060002090601f01602090048101928261186257600085556118a9565b82601f1061187b57805160ff19168380011785556118a9565b828001600101855582156118a9579182015b828111156118a857825182559160200191906001019061188d565b5b5090506118b691906118d4565b5090565b604051806040016040528060608152602001600081525090565b5b808211156118ed5760008160009055506001016118d5565b5090565b6000604051905090565b600080fd5b600080fd5b60007fffffffff0000000000000000000000000000000000000000000000000000000082169050919050565b61193a81611905565b811461194557600080fd5b50565b60008135905061195781611931565b92915050565b600060208284031215611973576119726118fb565b5b600061198184828501611948565b91505092915050565b60008115159050919050565b61199f8161198a565b82525050565b60006020820190506119ba6000830184611996565b92915050565b600081519050919050565b600082825260208201905092915050565b60005b838110156119fa5780820151818401526020810190506119df565b83811115611a09576000848401525b50505050565b6000601f19601f8301169050919050565b6000611a2b826119c0565b611a3581856119cb565b9350611a458185602086016119dc565b611a4e81611a0f565b840191505092915050565b60006020820190508181036000830152611a738184611a20565b905092915050565b6000819050919050565b611a8e81611a7b565b8114611a9957600080fd5b50565b600081359050611aab81611a85565b92915050565b600060208284031215611ac757611ac66118fb565b5b6000611ad584828501611a9c565b91505092915050565b600073ffffffffffffffffffffffffffffffffffffffff82169050919050565b6000611b0982611ade565b9050919050565b611b1981611afe565b82525050565b6000602082019050611b346000830184611b10565b92915050565b611b4381611afe565b8114611b4e57600080fd5b50565b600081359050611b6081611b3a565b92915050565b60008060408385031215611b7d57611b7c6118fb565b5b6000611b8b85828601611b51565b9250506020611b9c85828601611a9c565b9150509250929050565b600080600060608486031215611bbf57611bbe6118fb565b5b6000611bcd86828701611b51565b9350506020611bde86828701611b51565b9250506040611bef86828701611a9c565b9150509250925092565b600080fd5b600080fd5b7f4e487b7100000000000000000000000000000000000000000000000000000000600052604160045260246000fd5b611c3b82611a0f565b810181811067ffffffffffffffff82111715611c5a57611c59611c03565b5b80604052505050565b6000611c6d6118f1565b9050611c798282611c32565b919050565b600067ffffffffffffffff821115611c9957611c98611c03565b5b611ca282611a0f565b9050602081019050919050565b82818337600083830152505050565b6000611cd1611ccc84611c7e565b611c63565b905082815260208101848484011115611ced57611cec611bfe565b5b611cf8848285611caf565b509392505050565b600082601f830112611d1557611d14611bf9565b5b8135611d25848260208601611cbe565b91505092915050565b60008060408385031215611d4557611d446118fb565b5b600083013567ffffffffffffffff811115611d6357611d62611900565b5b611d6f85828601611d00565b9250506020611d8085828601611a9c565b9150509250929050565b611d9381611a7b565b82525050565b6000602082019050611dae6000830184611d8a565b92915050565b600060208284031215611dca57611dc96118fb565b5b6000611dd884828501611b51565b91505092915050565b611dea8161198a565b8114611df557600080fd5b50565b600081359050611e0781611de1565b92915050565b60008060408385031215611e2457611e236118fb565b5b6000611e3285828601611b51565b9250506020611e4385828601611df8565b9150509250929050565b600067ffffffffffffffff821115611e6857611e67611c03565b5b611e7182611a0f565b9050602081019050919050565b6000611e91611e8c84611e4d565b611c63565b905082815260208101848484011115611ead57611eac611bfe565b5b611eb8848285611caf565b509392505050565b600082601f830112611ed557611ed4611bf9565b5b8135611ee5848260208601611e7e565b91505092915050565b60008060008060808587031215611f0857611f076118fb565b5b6000611f1687828801611b51565b9450506020611f2787828801611b51565b9350506040611f3887828801611a9c565b925050606085013567ffffffffffffffff811115611f5957611f58611900565b5b611f6587828801611ec0565b91505092959194509250565b600082825260208201905092915050565b6000611f8d826119c0565b611f978185611f71565b9350611fa78185602086016119dc565b611fb081611a0f565b840191505092915050565b611fc481611a7b565b82525050565b60006040830160008301518482036000860152611fe78282611f82565b9150506020830151611ffc6020860182611fbb565b508091505092915050565b600060208201905081810360008301526120218184611fca565b905092915050565b600080604083850312156120405761203f6118fb565b5b600061204e85828601611b51565b925050602061205f85828601611b51565b9150509250929050565b7f4e487b7100000000000000000000000000000000000000000000000000000000600052602260045260246000fd5b600060028204905060018216806120b057607f821691505b602082108114156120c4576120c3612069565b5b50919050565b7f4552433732313a20617070726f76616c20746f2063757272656e74206f776e6560008201527f7200000000000000000000000000000000000000000000000000000000000000602082015250565b60006121266021836119cb565b9150612131826120ca565b604082019050919050565b6000602082019050818103600083015261215581612119565b9050919050565b7f4552433732313a20617070726f76652063616c6c6572206973206e6f7420746f60008201527f6b656e206f776e6572206e6f7220617070726f76656420666f7220616c6c0000602082015250565b60006121b8603e836119cb565b91506121c38261215c565b604082019050919050565b600060208201905081810360008301526121e7816121ab565b9050919050565b7f4552433732313a2063616c6c6572206973206e6f7420746f6b656e206f776e6560008201527f72206e6f7220617070726f766564000000000000000000000000000000000000602082015250565b600061224a602e836119cb565b9150612255826121ee565b604082019050919050565b600060208201905081810360008301526122798161223d565b9050919050565b7f4e487b7100000000000000000000000000000000000000000000000000000000600052601160045260246000fd5b60006122ba82611a7b565b91506122c583611a7b565b9250827fffffffffffffffffffffffffffffffffffffffffffffffffffffffffffffffff038211156122fa576122f9612280565b5b828201905092915050565b7f4552433732313a20696e76616c696420746f6b656e2049440000000000000000600082015250565b600061233b6018836119cb565b915061234682612305565b602082019050919050565b6000602082019050818103600083015261236a8161232e565b9050919050565b7f4552433732313a2061646472657373207a65726f206973206e6f74206120766160008201527f6c6964206f776e65720000000000000000000000000000000000000000000000602082015250565b60006123cd6029836119cb565b91506123d882612371565b604082019050919050565b600060208201905081810360008301526123fc816123c0565b9050919050565b600081905092915050565b6000612419826119c0565b6124238185612403565b93506124338185602086016119dc565b80840191505092915050565b600061244b828561240e565b9150612457828461240e565b91508190509392505050565b7f4552433732314d657461646174613a2055524920717565727920666f72206e6f60008201527f6e6578697374656e7420746f6b656e0000000000000000000000000000000000602082015250565b60006124bf602f836119cb565b91506124ca82612463565b604082019050919050565b600060208201905081810360008301526124ee816124b2565b9050919050565b7f4552433732313a207472616e736665722066726f6d20696e636f72726563742060008201527f6f776e6572000000000000000000000000000000000000000000000000000000602082015250565b60006125516025836119cb565b915061255c826124f5565b604082019050919050565b6000602082019050818103600083015261258081612544565b9050919050565b7f4552433732313a207472616e7366657220746f20746865207a65726f2061646460008201527f7265737300000000000000000000000000000000000000000000000000000000602082015250565b60006125e36024836119cb565b91506125ee82612587565b604082019050919050565b60006020820190508181036000830152612612816125d6565b9050919050565b600061262482611a7b565b915061262f83611a7b565b92508282101561264257612641612280565b5b828203905092915050565b7f4552433732313a20617070726f766520746f2063616c6c657200000000000000600082015250565b60006126836019836119cb565b915061268e8261264d565b602082019050919050565b600060208201905081810360008301526126b281612676565b9050919050565b7f4552433732313a207472616e7366657220746f206e6f6e20455243373231526560008201527f63656976657220696d706c656d656e7465720000000000000000000000000000602082015250565b60006127156032836119cb565b9150612720826126b9565b604082019050919050565b6000602082019050818103600083015261274481612708565b9050919050565b600061275682611a7b565b91507fffffffffffffffffffffffffffffffffffffffffffffffffffffffffffffffff82141561278957612788612280565b5b600182019050919050565b7f4e487b7100000000000000000000000000000000000000000000000000000000600052601260045260246000fd5b60006127ce82611a7b565b91506127d983611a7b565b9250826127e9576127e8612794565b5b828204905092915050565b60006127ff82611a7b565b915061280a83611a7b565b92508261281a57612819612794565b5b828206905092915050565b7f4e487b7100000000000000000000000000000000000000000000000000000000600052603260045260246000fd5b600081519050919050565b600082825260208201905092915050565b600061287b82612854565b612885818561285f565b93506128958185602086016119dc565b61289e81611a0f565b840191505092915050565b60006080820190506128be6000830187611b10565b6128cb6020830186611b10565b6128d86040830185611d8a565b81810360608301526128ea8184612870565b905095945050505050565b60008151905061290481611931565b92915050565b6000602082840312156129205761291f6118fb565b5b600061292e848285016128f5565b91505092915050565b7f4552433732313a206d696e7420746f20746865207a65726f2061646472657373600082015250565b600061296d6020836119cb565b915061297882612937565b602082019050919050565b6000602082019050818103600083015261299c81612960565b9050919050565b7f4552433732313a20746f6b656e20616c7265616479206d696e74656400000000600082015250565b60006129d9601c836119cb565b91506129e4826129a3565b602082019050919050565b60006020820190508181036000830152612a08816129cc565b905091905056fea26469706673582212209a8a6e07bfdcefcd4addd9b9b7bc29b02e433cec920a2a4e9f0f70f456bed42564736f6c63430008080033",
  "devdoc": {
    "kind": "dev",
    "methods": {
      "approve(address,uint256)": {
        "details": "See {IERC721-approve}."
      },
      "balanceOf(address)": {
        "details": "See {IERC721-balanceOf}."
      },
      "getApproved(uint256)": {
        "details": "See {IERC721-getApproved}."
      },
      "isApprovedForAll(address,address)": {
        "details": "See {IERC721-isApprovedForAll}."
      },
      "name()": {
        "details": "See {IERC721Metadata-name}."
      },
      "ownerOf(uint256)": {
        "details": "See {IERC721-ownerOf}."
      },
      "safeTransferFrom(address,address,uint256)": {
        "details": "See {IERC721-safeTransferFrom}."
      },
      "safeTransferFrom(address,address,uint256,bytes)": {
        "details": "See {IERC721-safeTransferFrom}."
      },
      "setApprovalForAll(address,bool)": {
        "details": "See {IERC721-setApprovalForAll}."
      },
      "supportsInterface(bytes4)": {
        "details": "See {IERC165-supportsInterface}."
      },
      "symbol()": {
        "details": "See {IERC721Metadata-symbol}."
      },
      "tokenURI(uint256)": {
        "details": "See {IERC721Metadata-tokenURI}."
      },
      "transferFrom(address,address,uint256)": {
        "details": "See {IERC721-transferFrom}."
      }
    },
    "version": 1
  },
  "userdoc": {
    "kind": "user",
    "methods": {},
    "version": 1
  },
  "storageLayout": {
    "storage": [
      {
        "astId": 25,
        "contract": "contracts/NftCollection.sol:NftCollection",
        "label": "_name",
        "offset": 0,
        "slot": "0",
        "type": "t_string_storage"
      },
      {
        "astId": 27,
        "contract": "contracts/NftCollection.sol:NftCollection",
        "label": "_symbol",
        "offset": 0,
        "slot": "1",
        "type": "t_string_storage"
      },
      {
        "astId": 31,
        "contract": "contracts/NftCollection.sol:NftCollection",
        "label": "_owners",
        "offset": 0,
        "slot": "2",
        "type": "t_mapping(t_uint256,t_address)"
      },
      {
        "astId": 35,
        "contract": "contracts/NftCollection.sol:NftCollection",
        "label": "_balances",
        "offset": 0,
        "slot": "3",
        "type": "t_mapping(t_address,t_uint256)"
      },
      {
        "astId": 39,
        "contract": "contracts/NftCollection.sol:NftCollection",
        "label": "_tokenApprovals",
        "offset": 0,
        "slot": "4",
        "type": "t_mapping(t_uint256,t_address)"
      },
      {
        "astId": 45,
        "contract": "contracts/NftCollection.sol:NftCollection",
        "label": "_operatorApprovals",
        "offset": 0,
        "slot": "5",
        "type": "t_mapping(t_address,t_mapping(t_address,t_bool))"
      },
      {
        "astId": 1618,
        "contract": "contracts/NftCollection.sol:NftCollection",
        "label": "s_tokenCounter",
        "offset": 0,
        "slot": "6",
        "type": "t_uint256"
      },
      {
        "astId": 1623,
        "contract": "contracts/NftCollection.sol:NftCollection",
        "label": "s_tokenIdToToken",
        "offset": 0,
        "slot": "7",
        "type": "t_mapping(t_uint256,t_struct(Token)1616_storage)"
      }
    ],
    "types": {
      "t_address": {
        "encoding": "inplace",
        "label": "address",
        "numberOfBytes": "20"
      },
      "t_bool": {
        "encoding": "inplace",
        "label": "bool",
        "numberOfBytes": "1"
      },
      "t_mapping(t_address,t_bool)": {
        "encoding": "mapping",
        "key": "t_address",
        "label": "mapping(address => bool)",
        "numberOfBytes": "32",
        "value": "t_bool"
      },
      "t_mapping(t_address,t_mapping(t_address,t_bool))": {
        "encoding": "mapping",
        "key": "t_address",
        "label": "mapping(address => mapping(address => bool))",
        "numberOfBytes": "32",
        "value": "t_mapping(t_address,t_bool)"
      },
      "t_mapping(t_address,t_uint256)": {
        "encoding": "mapping",
        "key": "t_address",
        "label": "mapping(address => uint256)",
        "numberOfBytes": "32",
        "value": "t_uint256"
      },
      "t_mapping(t_uint256,t_address)": {
        "encoding": "mapping",
        "key": "t_uint256",
        "label": "mapping(uint256 => address)",
        "numberOfBytes": "32",
        "value": "t_address"
      },
      "t_mapping(t_uint256,t_struct(Token)1616_storage)": {
        "encoding": "mapping",
        "key": "t_uint256",
        "label": "mapping(uint256 => struct NftCollection.Token)",
        "numberOfBytes": "32",
        "value": "t_struct(Token)1616_storage"
      },
      "t_string_storage": {
        "encoding": "bytes",
        "label": "string",
        "numberOfBytes": "32"
      },
      "t_struct(Token)1616_storage": {
        "encoding": "inplace",
        "label": "struct NftCollection.Token",
        "members": [
          {
            "astId": 1613,
            "contract": "contracts/NftCollection.sol:NftCollection",
            "label": "tokenUri",
            "offset": 0,
            "slot": "0",
            "type": "t_string_storage"
          },
          {
            "astId": 1615,
            "contract": "contracts/NftCollection.sol:NftCollection",
            "label": "price",
            "offset": 0,
            "slot": "1",
            "type": "t_uint256"
          }
        ],
        "numberOfBytes": "64"
      },
      "t_uint256": {
        "encoding": "inplace",
        "label": "uint256",
        "numberOfBytes": "32"
      }
    }
  }
}