{
  "address": "0x5FbDB2315678afecb367f032d93F642f64180aa3",
  "abi": [
    {
      "inputs": [],
      "stateMutability": "nonpayable",
      "type": "constructor"
    },
    {
      "inputs": [],
      "name": "NFTUnboxed__AlreadyListed",
      "type": "error"
    },
    {
      "inputs": [],
      "name": "NFTUnboxed__NoProceeds",
      "type": "error"
    },
    {
      "inputs": [],
      "name": "NFTUnboxed__NotApprovedForMarketplace",
      "type": "error"
    },
    {
      "inputs": [],
      "name": "NFTUnboxed__NotEnoughPrice",
      "type": "error"
    },
    {
      "inputs": [],
      "name": "NFTUnboxed__NotListed",
      "type": "error"
    },
    {
      "inputs": [],
      "name": "NFTUnboxed__NotOwner",
      "type": "error"
    },
    {
      "inputs": [],
      "name": "NFTUnboxed__PriceMustBeGreaterThanZero",
      "type": "error"
    },
    {
      "inputs": [],
      "name": "NFTUnboxed__TransferFailed",
      "type": "error"
    },
    {
      "anonymous": false,
      "inputs": [
        {
          "indexed": true,
          "internalType": "address",
          "name": "buyerAddress",
          "type": "address"
        },
        {
          "indexed": true,
          "internalType": "address",
          "name": "nftAddress",
          "type": "address"
        },
        {
          "indexed": true,
          "internalType": "uint256",
          "name": "tokenId",
          "type": "uint256"
        },
        {
          "indexed": false,
          "internalType": "uint256",
          "name": "price",
          "type": "uint256"
        }
      ],
      "name": "ItemBought",
      "type": "event"
    },
    {
      "anonymous": false,
      "inputs": [
        {
          "indexed": true,
          "internalType": "address",
          "name": "nftAddress",
          "type": "address"
        },
        {
          "indexed": true,
          "internalType": "uint256",
          "name": "tokenId",
          "type": "uint256"
        }
      ],
      "name": "ItemDelete",
      "type": "event"
    },
    {
      "anonymous": false,
      "inputs": [
        {
          "indexed": true,
          "internalType": "address",
          "name": "sellerAddress",
          "type": "address"
        },
        {
          "indexed": true,
          "internalType": "address",
          "name": "nftAddress",
          "type": "address"
        },
        {
          "indexed": true,
          "internalType": "uint256",
          "name": "tokenId",
          "type": "uint256"
        },
        {
          "indexed": false,
          "internalType": "uint256",
          "name": "price",
          "type": "uint256"
        }
      ],
      "name": "ItemListed",
      "type": "event"
    },
    {
      "inputs": [
        {
          "internalType": "address",
          "name": "nftAddress",
          "type": "address"
        },
        {
          "internalType": "uint256",
          "name": "tokenId",
          "type": "uint256"
        }
      ],
      "name": "buyItem",
      "outputs": [],
      "stateMutability": "payable",
      "type": "function"
    },
    {
      "inputs": [
        {
          "internalType": "address",
          "name": "nftAddress",
          "type": "address"
        },
        {
          "internalType": "uint256",
          "name": "tokenId",
          "type": "uint256"
        }
      ],
      "name": "deleteItem",
      "outputs": [],
      "stateMutability": "nonpayable",
      "type": "function"
    },
    {
      "inputs": [
        {
          "internalType": "address",
          "name": "nftAddress",
          "type": "address"
        },
        {
          "internalType": "uint256",
          "name": "tokenId",
          "type": "uint256"
        }
      ],
      "name": "getItem",
      "outputs": [
        {
          "components": [
            {
              "internalType": "address",
              "name": "seller",
              "type": "address"
            },
            {
              "internalType": "uint256",
              "name": "price",
              "type": "uint256"
            }
          ],
          "internalType": "struct NFTUnboxed.Item",
          "name": "",
          "type": "tuple"
        }
      ],
      "stateMutability": "view",
      "type": "function"
    },
    {
      "inputs": [
        {
          "internalType": "address",
          "name": "sellerAddress",
          "type": "address"
        }
      ],
      "name": "getProceeds",
      "outputs": [
        {
          "internalType": "uint256",
          "name": "",
          "type": "uint256"
        }
      ],
      "stateMutability": "view",
      "type": "function"
    },
    {
      "inputs": [
        {
          "internalType": "address",
          "name": "nftAddress",
          "type": "address"
        },
        {
          "internalType": "uint256",
          "name": "tokenId",
          "type": "uint256"
        },
        {
          "internalType": "uint256",
          "name": "price",
          "type": "uint256"
        }
      ],
      "name": "listItem",
      "outputs": [],
      "stateMutability": "nonpayable",
      "type": "function"
    },
    {
      "inputs": [
        {
          "internalType": "address",
          "name": "nftAddress",
          "type": "address"
        },
        {
          "internalType": "uint256",
          "name": "tokenId",
          "type": "uint256"
        },
        {
          "internalType": "uint256",
          "name": "newPrice",
          "type": "uint256"
        }
      ],
      "name": "updateItem",
      "outputs": [],
      "stateMutability": "nonpayable",
      "type": "function"
    },
    {
      "inputs": [],
      "name": "withdrawProceeds",
      "outputs": [],
      "stateMutability": "nonpayable",
      "type": "function"
    }
  ],
  "transactionHash": "0x64f4c9aa9eddd90efc448d1b2cc2e31a181de69131e860384f36fa9a00453d0e",
  "args": [],
  "numDeployments": 1,
  "solcInputHash": "8fc27ab7990a5a2f2bea8d8ecdcd5fa4",
  "bytecode": "0x608060405234801561001057600080fd5b50600160008190555061168b806100286000396000f3fe6080604052600436106100705760003560e01c806389bfd38f1161004e57806389bfd38f146101045780639038e6931461012d5780639f37092a14610144578063b8a80aac1461016057610070565b806330cfeda91461007557806337a14668146100b2578063781c1f1d146100db575b600080fd5b34801561008157600080fd5b5061009c600480360381019061009791906112fd565b61019d565b6040516100a99190611343565b60405180910390f35b3480156100be57600080fd5b506100d960048036038101906100d4919061138a565b6101e6565b005b3480156100e757600080fd5b5061010260048036038101906100fd91906113ca565b6103a9565b005b34801561011057600080fd5b5061012b600480360381019061012691906113ca565b6107bb565b005b34801561013957600080fd5b50610142610c1e565b005b61015e6004803603810190610159919061138a565b610d88565b005b34801561016c57600080fd5b506101876004803603810190610182919061138a565b61119f565b604051610194919061146a565b60405180910390f35b6000600260008373ffffffffffffffffffffffffffffffffffffffff1673ffffffffffffffffffffffffffffffffffffffff168152602001908152602001600020549050919050565b81813360008390508173ffffffffffffffffffffffffffffffffffffffff168173ffffffffffffffffffffffffffffffffffffffff16636352211e856040518263ffffffff1660e01b815260040161023e9190611343565b60206040518083038186803b15801561025657600080fd5b505afa15801561026a573d6000803e3d6000fd5b505050506040513d601f19601f8201168201806040525081019061028e919061149a565b73ffffffffffffffffffffffffffffffffffffffff16146102db576040517f043ff43d00000000000000000000000000000000000000000000000000000000815260040160405180910390fd5b600160008773ffffffffffffffffffffffffffffffffffffffff1673ffffffffffffffffffffffffffffffffffffffff1681526020019081526020016000206000868152602001908152602001600020600080820160006101000a81549073ffffffffffffffffffffffffffffffffffffffff021916905560018201600090555050848673ffffffffffffffffffffffffffffffffffffffff167f64d8bf9d803532930fb16b58f8a4f7b17532a240f0500ba32d321e70879033d460405160405180910390a3505050505050565b600260005414156103ef576040517f08c379a00000000000000000000000000000000000000000000000000000000081526004016103e690611524565b60405180910390fd5b600260008190555082826000600160008473ffffffffffffffffffffffffffffffffffffffff1673ffffffffffffffffffffffffffffffffffffffff16815260200190815260200160002060008381526020019081526020016000206040518060400160405290816000820160009054906101000a900473ffffffffffffffffffffffffffffffffffffffff1673ffffffffffffffffffffffffffffffffffffffff1673ffffffffffffffffffffffffffffffffffffffff168152602001600182015481525050905060008160200151116104f6576040517f7902763100000000000000000000000000000000000000000000000000000000815260040160405180910390fd5b85853360008390508173ffffffffffffffffffffffffffffffffffffffff168173ffffffffffffffffffffffffffffffffffffffff16636352211e856040518263ffffffff1660e01b815260040161054e9190611343565b60206040518083038186803b15801561056657600080fd5b505afa15801561057a573d6000803e3d6000fd5b505050506040513d601f19601f8201168201806040525081019061059e919061149a565b73ffffffffffffffffffffffffffffffffffffffff16146105eb576040517f043ff43d00000000000000000000000000000000000000000000000000000000815260040160405180910390fd5b60008811610625576040517fdb27b94500000000000000000000000000000000000000000000000000000000815260040160405180910390fd5b6000600160008c73ffffffffffffffffffffffffffffffffffffffff1673ffffffffffffffffffffffffffffffffffffffff16815260200190815260200160002060008b81526020019081526020016000206040518060400160405290816000820160009054906101000a900473ffffffffffffffffffffffffffffffffffffffff1673ffffffffffffffffffffffffffffffffffffffff1673ffffffffffffffffffffffffffffffffffffffff168152602001600182015481525050905088600160008d73ffffffffffffffffffffffffffffffffffffffff1673ffffffffffffffffffffffffffffffffffffffff16815260200190815260200160002060008c815260200190815260200160002060010181905550898b73ffffffffffffffffffffffffffffffffffffffff163373ffffffffffffffffffffffffffffffffffffffff167fd547e933094f12a9159076970143ebe73234e64480317844b0dcb36117116de4846020015160405161079e9190611343565b60405180910390a450505050505050506001600081905550505050565b82826000600160008473ffffffffffffffffffffffffffffffffffffffff1673ffffffffffffffffffffffffffffffffffffffff16815260200190815260200160002060008381526020019081526020016000206040518060400160405290816000820160009054906101000a900473ffffffffffffffffffffffffffffffffffffffff1673ffffffffffffffffffffffffffffffffffffffff1673ffffffffffffffffffffffffffffffffffffffff16815260200160018201548152505090506000816020015111156108bb576040517fb3827ee400000000000000000000000000000000000000000000000000000000815260040160405180910390fd5b85853360008390508173ffffffffffffffffffffffffffffffffffffffff168173ffffffffffffffffffffffffffffffffffffffff16636352211e856040518263ffffffff1660e01b81526004016109139190611343565b60206040518083038186803b15801561092b57600080fd5b505afa15801561093f573d6000803e3d6000fd5b505050506040513d601f19601f82011682018060405250810190610963919061149a565b73ffffffffffffffffffffffffffffffffffffffff16146109b0576040517f043ff43d00000000000000000000000000000000000000000000000000000000815260040160405180910390fd5b600088116109ea576040517fdb27b94500000000000000000000000000000000000000000000000000000000815260040160405180910390fd5b60008a90503073ffffffffffffffffffffffffffffffffffffffff168173ffffffffffffffffffffffffffffffffffffffff1663081812fc8c6040518263ffffffff1660e01b8152600401610a3f9190611343565b60206040518083038186803b158015610a5757600080fd5b505afa158015610a6b573d6000803e3d6000fd5b505050506040513d601f19601f82011682018060405250810190610a8f919061149a565b73ffffffffffffffffffffffffffffffffffffffff1614610adc576040517f90dd26be00000000000000000000000000000000000000000000000000000000815260040160405180910390fd5b60405180604001604052803373ffffffffffffffffffffffffffffffffffffffff1681526020018a815250600160008d73ffffffffffffffffffffffffffffffffffffffff1673ffffffffffffffffffffffffffffffffffffffff16815260200190815260200160002060008c815260200190815260200160002060008201518160000160006101000a81548173ffffffffffffffffffffffffffffffffffffffff021916908373ffffffffffffffffffffffffffffffffffffffff16021790555060208201518160010155905050898b73ffffffffffffffffffffffffffffffffffffffff163373ffffffffffffffffffffffffffffffffffffffff167fd547e933094f12a9159076970143ebe73234e64480317844b0dcb36117116de48c604051610c099190611343565b60405180910390a45050505050505050505050565b6000600260003373ffffffffffffffffffffffffffffffffffffffff1673ffffffffffffffffffffffffffffffffffffffff16815260200190815260200160002054905060008111610c9c576040517f066bd7e500000000000000000000000000000000000000000000000000000000815260040160405180910390fd5b6000600260003373ffffffffffffffffffffffffffffffffffffffff1673ffffffffffffffffffffffffffffffffffffffff1681526020019081526020016000208190555060003373ffffffffffffffffffffffffffffffffffffffff1682604051610d0790611575565b60006040518083038185875af1925050503d8060008114610d44576040519150601f19603f3d011682016040523d82523d6000602084013e610d49565b606091505b5050905080610d84576040517ff282639600000000000000000000000000000000000000000000000000000000815260040160405180910390fd5b5050565b60026000541415610dce576040517f08c379a0000000000000000000000000000000000000000000000000000000008152600401610dc590611524565b60405180910390fd5b600260008190555081816000600160008473ffffffffffffffffffffffffffffffffffffffff1673ffffffffffffffffffffffffffffffffffffffff16815260200190815260200160002060008381526020019081526020016000206040518060400160405290816000820160009054906101000a900473ffffffffffffffffffffffffffffffffffffffff1673ffffffffffffffffffffffffffffffffffffffff1673ffffffffffffffffffffffffffffffffffffffff16815260200160018201548152505090506000816020015111610ed5576040517f7902763100000000000000000000000000000000000000000000000000000000815260040160405180910390fd5b6000600160008773ffffffffffffffffffffffffffffffffffffffff1673ffffffffffffffffffffffffffffffffffffffff16815260200190815260200160002060008681526020019081526020016000206040518060400160405290816000820160009054906101000a900473ffffffffffffffffffffffffffffffffffffffff1673ffffffffffffffffffffffffffffffffffffffff1673ffffffffffffffffffffffffffffffffffffffff16815260200160018201548152505090508060200151341015610fd2576040517fb0a8a87a00000000000000000000000000000000000000000000000000000000815260040160405180910390fd5b806020015160026000836000015173ffffffffffffffffffffffffffffffffffffffff1673ffffffffffffffffffffffffffffffffffffffff168152602001908152602001600020600082825461102991906115b9565b92505081905550600160008773ffffffffffffffffffffffffffffffffffffffff1673ffffffffffffffffffffffffffffffffffffffff1681526020019081526020016000206000868152602001908152602001600020600080820160006101000a81549073ffffffffffffffffffffffffffffffffffffffff0219169055600182016000905550508573ffffffffffffffffffffffffffffffffffffffff166342842e0e826000015133886040518463ffffffff1660e01b81526004016110f39392919061161e565b600060405180830381600087803b15801561110d57600080fd5b505af1158015611121573d6000803e3d6000fd5b50505050848673ffffffffffffffffffffffffffffffffffffffff163373ffffffffffffffffffffffffffffffffffffffff167f263223b1dd81e51054a4e6f791d45a4a1ddb4aadcd93a2dfd892615c3fdac18784602001516040516111879190611343565b60405180910390a45050505060016000819055505050565b6111a761126a565b600160008473ffffffffffffffffffffffffffffffffffffffff1673ffffffffffffffffffffffffffffffffffffffff16815260200190815260200160002060008381526020019081526020016000206040518060400160405290816000820160009054906101000a900473ffffffffffffffffffffffffffffffffffffffff1673ffffffffffffffffffffffffffffffffffffffff1673ffffffffffffffffffffffffffffffffffffffff168152602001600182015481525050905092915050565b6040518060400160405280600073ffffffffffffffffffffffffffffffffffffffff168152602001600081525090565b600080fd5b600073ffffffffffffffffffffffffffffffffffffffff82169050919050565b60006112ca8261129f565b9050919050565b6112da816112bf565b81146112e557600080fd5b50565b6000813590506112f7816112d1565b92915050565b6000602082840312156113135761131261129a565b5b6000611321848285016112e8565b91505092915050565b6000819050919050565b61133d8161132a565b82525050565b60006020820190506113586000830184611334565b92915050565b6113678161132a565b811461137257600080fd5b50565b6000813590506113848161135e565b92915050565b600080604083850312156113a1576113a061129a565b5b60006113af858286016112e8565b92505060206113c085828601611375565b9150509250929050565b6000806000606084860312156113e3576113e261129a565b5b60006113f1868287016112e8565b935050602061140286828701611375565b925050604061141386828701611375565b9150509250925092565b611426816112bf565b82525050565b6114358161132a565b82525050565b604082016000820151611451600085018261141d565b506020820151611464602085018261142c565b50505050565b600060408201905061147f600083018461143b565b92915050565b600081519050611494816112d1565b92915050565b6000602082840312156114b0576114af61129a565b5b60006114be84828501611485565b91505092915050565b600082825260208201905092915050565b7f5265656e7472616e637947756172643a207265656e7472616e742063616c6c00600082015250565b600061150e601f836114c7565b9150611519826114d8565b602082019050919050565b6000602082019050818103600083015261153d81611501565b9050919050565b600081905092915050565b50565b600061155f600083611544565b915061156a8261154f565b600082019050919050565b600061158082611552565b9150819050919050565b7f4e487b7100000000000000000000000000000000000000000000000000000000600052601160045260246000fd5b60006115c48261132a565b91506115cf8361132a565b9250827fffffffffffffffffffffffffffffffffffffffffffffffffffffffffffffffff038211156116045761160361158a565b5b828201905092915050565b611618816112bf565b82525050565b6000606082019050611633600083018661160f565b611640602083018561160f565b61164d6040830184611334565b94935050505056fea2646970667358221220e134bc5333efda71ab67c522913373309fb2a89fd32c8132326274127377d8b864736f6c63430008080033",
  "devdoc": {
    "kind": "dev",
    "methods": {},
    "version": 1
  },
  "userdoc": {
    "kind": "user",
    "methods": {},
    "version": 1
  },
  "storageLayout": {
    "storage": [
      {
        "astId": 10,
        "contract": "contracts/NFTUnboxed.sol:NFTUnboxed",
        "label": "_status",
        "offset": 0,
        "slot": "0",
        "type": "t_uint256"
      },
      {
        "astId": 1706,
        "contract": "contracts/NFTUnboxed.sol:NFTUnboxed",
        "label": "s_items",
        "offset": 0,
        "slot": "1",
        "type": "t_mapping(t_address,t_mapping(t_uint256,t_struct(Item)1673_storage))"
      },
      {
        "astId": 1710,
        "contract": "contracts/NFTUnboxed.sol:NFTUnboxed",
        "label": "s_proceeds",
        "offset": 0,
        "slot": "2",
        "type": "t_mapping(t_address,t_uint256)"
      }
    ],
    "types": {
      "t_address": {
        "encoding": "inplace",
        "label": "address",
        "numberOfBytes": "20"
      },
      "t_mapping(t_address,t_mapping(t_uint256,t_struct(Item)1673_storage))": {
        "encoding": "mapping",
        "key": "t_address",
        "label": "mapping(address => mapping(uint256 => struct NFTUnboxed.Item))",
        "numberOfBytes": "32",
        "value": "t_mapping(t_uint256,t_struct(Item)1673_storage)"
      },
      "t_mapping(t_address,t_uint256)": {
        "encoding": "mapping",
        "key": "t_address",
        "label": "mapping(address => uint256)",
        "numberOfBytes": "32",
        "value": "t_uint256"
      },
      "t_mapping(t_uint256,t_struct(Item)1673_storage)": {
        "encoding": "mapping",
        "key": "t_uint256",
        "label": "mapping(uint256 => struct NFTUnboxed.Item)",
        "numberOfBytes": "32",
        "value": "t_struct(Item)1673_storage"
      },
      "t_struct(Item)1673_storage": {
        "encoding": "inplace",
        "label": "struct NFTUnboxed.Item",
        "members": [
          {
            "astId": 1670,
            "contract": "contracts/NFTUnboxed.sol:NFTUnboxed",
            "label": "seller",
            "offset": 0,
            "slot": "0",
            "type": "t_address"
          },
          {
            "astId": 1672,
            "contract": "contracts/NFTUnboxed.sol:NFTUnboxed",
            "label": "price",
            "offset": 0,
            "slot": "1",
            "type": "t_uint256"
          }
        ],
        "numberOfBytes": "64"
      },
      "t_uint256": {
        "encoding": "inplace",
        "label": "uint256",
        "numberOfBytes": "32"
      }
    }
  }
}